:100000000C9490010C94F30A0C94CC0A0C94A50A5D
:100010000C947E0A0C94B8010C94B8010C94570A05
:100020000C94B8010C94B8010C941A0B0C94890B25
:100030000C94B8010C94B8010C94B8010C94B8015C
:100040000C94B8010C94B8010C94B8010C94B8014C
:100050000C94B8010C94B8010C94B8010C940D0ADE
:100060000C94B8010C94B8010C94B8010C94B8012C
:100070000C94B8010C94B8010C94B8010C94B8011C
:100080000C94B8010C94B8010C94B8010C94B8010C
:100090000C94B8010C94B8010C94B8010C94B801FC
:1000A0000C94B8010C94B8010C94B801080B000230
:1000B0000202000009040000010202000005240001
:1000C0001001052401010104240206052406000193
:1000D0000705810310004009040100020A00000026
:1000E00007050202400000070583024000000403E8
:1000F000090412010002EF02014041233680000191
:100100000102030141726475696E6F204C4C43001B
:1001100041726475696E6F204C656F6E6172646FB9
:100120000000000000240027002A002D00300000FD
:10013000000000250028002B002E003100000000E8
:10014000002300260029002C002F000404040404CE
:10015000030405020202020403020202020606066A
:100160000606060404020202040404080201104008
:100170008040102040804080080204018040201010
:100180000201108010204040200000000200090FF2
:100190000000030401000C0000000000000000004B
:1001A000000000000000000005010905A101850113
:1001B0000509190129101500250175019510810205
:1001C000050109300931093309341581257F75107E
:1001D00095048102050209C509C4150025FF7508AB
:1001E00095028102850415002501050A0901A10275
:1001F0000508094B750195019102C0050A0902A184
:10020000020508094B750195019102C0050A090311
:10021000A1020508094B750195019102C0050A0963
:1002200004A1020508094B750195019102C0050A58
:100230000905A1020508094B750195019102C00548
:100240000A0906A1020508094B750195019102C032
:10025000050A0907A1020508094B750195019102DC
:10026000C0050A0908A1020508094B75019501910D
:1002700002C0050A0909A1020508094B750195018B
:100280009102C0050A090AA1020508094B750195EA
:10029000019102C0050A090BA1020508094B75016D
:1002A00095019102C0050A090CA1020508094B75C8
:1002B0000195019102C0950175049103C0050109E2
:1002C00006A1018502050719E029E715002501753A
:1002D00001950881029501750881030507957075E0
:1002E0000115002501190429658102C005010902D3
:1002F000A1018503050919012903150025019503AD
:1003000075018102950175058103050109300931E7
:1003100009381581257F750895038106C000B50D44
:1003200011241FBECFEFDAE0DEBFCDBF11E0A0E0A9
:10033000B1E0EEE1F8E202C005900D92A637B107F8
:10034000D9F722E0A6E7B1E001C01D92AD38B207AF
:10035000E1F711E0C0E9D1E004C02197FE010E945D
:10036000F313CF38D107C9F70E94090E0C940D146E
:100370000C940000FC0180912E02882311F13FB7FC
:10038000F89482E08093E9002091F200822F90E0BF
:100390001816190614F481E090E0882339F02898A3
:1003A00044E640932D024091F1004083222339F02E
:1003B0002091F200211103C02BE62093E8003FBFFB
:1003C00008958FEF9FEF089581508F3008F047C058
:1003D000E82FF0E0E251FE4F0C94F3130B020F02F2
:1003E000FD01030207022F022F022F021202180240
:1003F0001C02200226022F022A02809180008F77A1
:10040000809380000895809180008F7DF9CF809146
:100410008000877FF5CF84B58F7784BD089584B53C
:100420008F7DFBCF809190008F778093900008950F
:10043000809190008F7DF9CF80919000877FF5CFDC
:100440008091C0008F778093C00008958091C00094
:100450008F7DF9CF8091C200877F8093C20008957D
:10046000CF93DF93282F30E0F901E757FE4F8491B7
:10047000F901E659FE4FD491F901E55BFE4FC491B5
:10048000CC23A1F081110E94E401EC2FF0E0EE0FEB
:10049000FF1FE35CFE4FA591B491EC91ED2381E049
:1004A00090E009F480E0DF91CF91089580E090E042
:1004B000FACF1F93CF93DF93282F30E0F901E7574E
:1004C000FE4F8491F901E659FE4FD491F901E55BA5
:1004D000FE4FC491CC23A9F0162F81110E94E40194
:1004E000EC2FF0E0EE0FFF1FE15DFE4FA591B49100
:1004F0008FB7F894EC91111108C0D095DE23DC93EE
:100500008FBFDF91CF911F910895DE2BF8CFCF934E
:10051000DF9390E0FC01E659FE4F2491855B9E4FEE
:10052000FC0184918823D1F090E0880F991FFC0191
:10053000EF5DFE4FA591B491FC01E15DFE4FC591C9
:10054000D491623071F49FB7F8943C91822F8095DA
:1005500083238C93E8812E2B28839FBFDF91CF913B
:1005600008958FB7F894EC912E2B2C938FBFF6CF74
:100570003FB7F8948091290290912A02A0912B0212
:10058000B0912C0226B5A89B05C02F3F19F001960B
:10059000A11DB11D3FBFBA2FA92F982F8827BC01DD
:1005A000CD01620F711D811D911D42E0660F771F05
:1005B000881F991F4A95D1F708958F929F92AF9205
:1005C000BF92CF92DF92EF92FF924B015C010E94AB
:1005D000B8026B017C010E94B8026C197D098E097A
:1005E0009F09683E734081059105A8F321E0821AB6
:1005F0009108A108B10888EEC80E83E0D81EE11C5E
:10060000F11C81149104A104B10429F7FF90EF902B
:10061000DF90CF90BF90AF909F908F900895CF9232
:10062000DF92EF92FF9283E00E9430020197D9F1AE
:100630008091C5019091C601A091C701B091C801F8
:100640000196A11DB11D8093C5019093C601A09391
:10065000C701B093C8016091C5017091C601809136
:10066000C7019091C801C0900001D0900101E090B5
:100670000201F09003010E943113A70196010E942C
:1006800087120E94F912CB0160E071E00E94BD1355
:100690008058990B9093AC018093AB01FF90EF9041
:1006A000DF90CF9008958091C5019091C601A091EF
:1006B000C701B091C8010197A109B109C4CFCF9278
:1006C000DF92EF92FF9280E00E9430020197D9F111
:1006D0008091BD019091BE01A091BF01B091C00178
:1006E0000196A11DB11D8093BD019093BE01A09301
:1006F000BF01B093C0016091BD017091BE018091B6
:10070000BF019091C001C0900001D0900101E09024
:100710000201F09003010E943113A70196010E948B
:1007200087120E94F912CB0160E071E00E94BD13B4
:100730008058990B9093AA018093A901FF90EF90A4
:10074000DF90CF9008958091BD019091BE01A0915E
:10075000BF01B091C0010197A109B109C4CF0895AB
:1007600040919D0150919E0120919B0130919C01EF
:1007700042175307B4F49091E8009570E1F390911B
:10078000E80092FD19C08093F10080919D01909145
:100790009E0101968F739927892B19F48EEF809310
:1007A000E80080919D0190919E01019690939E0199
:1007B00080939D0181E0089580E00895EF92FF927B
:1007C0000F931F93CF93DF93F82E192FE62E042F4C
:1007D00081E0860F880F0E94B00383E00E94B0037F
:1007E000CF2DD12FEC0EFD2EF11CCE15DF05B9F06B
:1007F00007FF13C0FE0184910E94B003182F80E010
:100800000E94B003812321968111EFCFDF91CF9118
:100810001F910F91FF90EF9008958881EDCF81E0B7
:10082000F5CFDF92EF92FF920F931F93CF93DF9359
:10083000D82E8A01EB017B01E40EF51ECE15DF05F3
:1008400059F0D7FE12C0FE0184910E94B003219698
:100850008111F4CF0FEF1FEFC801DF91CF911F91EE
:100860000F91FF90EF90DF9008958881EECF2FB722
:10087000F89487708093E9009091E800892F807246
:1008800095FF04C09091F20080E4891B2FBF08956A
:100890007F928F929F92AF92BF92CF92DF92EF9210
:1008A000FF920F931F93CF93DF93C82E8B017A0192
:1008B00080912E02811110C08FEF9FEFDF91CF91B9
:1008C0001F910F91FF90EF90DF90CF90BF90AF906E
:1008D0009F908F907F9008958091A10180FF05C027
:1008E0008091E00082608093E000CE2DDF2DD12C3E
:1008F0008AEFB82E8C2D8770982E8C2D8072882EC2
:100900008C2D8074782E9AE3A92E209719F4DD207F
:1009100009F452C08C2D0E94370481110AC0BA9488
:10092000BB2051F261E070E080E090E00E94DD02C7
:10093000ECCF8C171D0611F00CF08C2F9FB7F8949C
:100940009092E9002091E80025FD02C09FBFDDCF15
:10095000282F30E0C21BD30B882029F08150A0F053
:100960001092F100FBCFF801C7FC0AC0815050F093
:1009700041914093F100FACF44914093F1003196B8
:100980008150D0F7020F131FDD2021F0A092E80064
:10099000D12CDCCF8091E80085FD07C0A092E80053
:1009A000DD24D394209791F2F3CF209779F6772026
:1009B00069F2A092E800CACF5D9884E68093A00116
:1009C000C7017CCF615030F02091F100FC01208301
:1009D0000196F8CF289884E680932D020895AF926F
:1009E000BF92DF92EF92FF920F931F93CF93DF930B
:1009F0005C018B01EB019BEFD92E7E01C134D10547
:100A00001CF080E4E82EF12C8091E80082FFFCCFFE
:100A1000C8018C1B9D0B6E2D8A0D9B1D0E94E2044C
:100A2000D092E800CE19DF0941F7C801DF91CF91DC
:100A30001F910F91FF90EF90DF90BF90AF900895BE
:100A40008091930181110DC082E080938F0184E039
:100A500080939001109292011092910181E0809315
:100A600093018FE891E008950F931F93CF93DF9345
:100A70001F92CDB7DEB782E0898342E450E06CEA92
:100A800070E080E80E9411040E942005DC011296AB
:100A90000D911C910115110589F0D801ED91FC9182
:100AA0000280F381E02DBE016F5F7F4FC801099581
:100AB00097FD04C0F80100851185ECCF89810F9066
:100AC000DF91CF911F910F910895CF93DF93EC01A8
:100AD00080911601882331F083E00E9448041816A3
:100AE000190634F081E090E09B838A8380E090E0F7
:100AF000DF91CF910895CF93DF931F92CDB7DEB7EB
:100B00006983DC01ED91FC910280F381E02D41E0ED
:100B100050E0BE016F5F7F4F09950F90DF91CF913D
:100B2000089583E08093E9008091F200882319F012
:100B30008AE38093E800089583E00E94370490E000
:100B40000895CF93DF931F92CDB7DEB7FC01848564
:100B5000958597FD08C02FEF3FEF358724870F90CD
:100B6000DF91CF910895CE0101960E94BA010197BD
:100B700019F4898190E0F3CF8FEF9FEFF0CF0F93BF
:100B80001F93CF93DF931F92CDB7DEB78C01FC018B
:100B90008485958597FF0BC0CE0101960E94BA010E
:100BA000019771F4898190E0F80195878487F801B5
:100BB000848595850F90DF91CF911F910F910895B6
:100BC0008FEF9FEFF1CFFC018485958597FD0BC0DA
:100BD0009FB7F89482E08093E9008091F2009FBF74
:100BE00090E0019608959FB7F89482E08093E90021
:100BF0008091F2009FBF90E008951092B50180911E
:100C0000B3019091B40101969093B4018093B30124
:100C10002091230130912401281739077CF480E0CA
:100C20000E943002019759F080910D0280618093FB
:100C30000D0280910D028F7D80930D0208958091A9
:100C40000D02806280930D0280910D028F7EF4CFA1
:100C50001092B2018091B0019091B10101969093F0
:100C6000B1018093B0012091230130912401281714
:100C700039077CF483E00E943002019759F080919B
:100C80000D02816080930D0280910D028D7F809313
:100C90000D02089580910D02826080930D02809173
:100CA0000D028E7FF4CF0F931F93CF93DF93C9E490
:100CB000D1E0E9ECF1E030E020E008E010E08091E4
:100CC0003A0190E0019682179307BCF089919991BF
:100CD000AC0197FF02C0495F5F4F63E055954795B0
:100CE0006A95E1F751834083B8010E94BD13938355
:100CF00082832F5F3F4F3496E2CFDF91CF911F91D8
:100D00000F91089580E00E9430020197A1F0809138
:100D1000BD019091BE01A091BF01B091C0010196AB
:100D2000A11DB11D8093BD019093BE01A093BF0191
:100D3000B093C00108958091BD019091BE01A09132
:100D4000BF01B091C0010197A109B109EBCF83E0C8
:100D50000E9430020197A1F08091C5019091C601D7
:100D6000A091C701B091C8010196A11DB11D80934A
:100D7000C5019093C601A093C701B093C80108951F
:100D80008091C5019091C601A091C701B091C801A1
:100D90000197A109B109EBCF1092A8018091A6019A
:100DA0009091A70101969093A7018093A6012091AD
:100DB00017013091180128173907B4F580E00E9417
:100DC00030028130910589F18DE790E09093AA017E
:100DD0008093A90130913A0140912C0150912D014D
:100DE0003E5F81E090E0BC0102C0660F771F3A953C
:100DF000E2F79B01209530952423352330932D0174
:100E000020932C0120913A0140912C0150912D0109
:100E10002D5F02C0880F991F2A95E2F7842B952B2E
:100E200090932D0180932C01089523E83FEF309398
:100E3000AA012093A90130913A0140912C015091CF
:100E40002D013D5FBC0102C0660F771F3A95E2F7A6
:100E50009B01209530952423352330932D01209339
:100E60002C0120913A0140912C0150912D012E5FCF
:100E7000D0CF1092A5018091A3019091A401019679
:100E80009093A4018093A301209117013091180140
:100E900028173907ACF583E00E94300281309105B4
:100EA00081F18DE790E09093AC018093AB012091AC
:100EB0003A0140912C0150912D0181E090E0BC015C
:100EC00002C0660F771F2A95E2F79B0120953095A7
:100ED0002423352330932D0120932C0120913A01B6
:100EE00040912C0150912D012F5F02C0880F991F56
:100EF0002A95E2F7842B952B90932D0180932C015A
:100F0000089523E83FEF3093AC012093AB0130917B
:100F10003A0140912C0150912D013F5FBC0102C06C
:100F2000660F771F3A95E2F79B01209530952423B1
:100F3000352330932D0120932C0140913A012091CB
:100F40002C0130912D0102C0880F991F4A95E2F7BC
:100F5000822B932BD1CFAF92BF92CF92DF92EF92A1
:100F6000FF920F931F93CF93DF93D0E0C0E010E088
:100F700000E0CC24C394D12CFE01EB5DFE4F8081B8
:100F800060E00E9459022097B9F58091270161E045
:100F90000E9459025E01AA0CBB1CAA0CBB1CF12CBE
:100FA000E12CF701E85DFE4F80810E94300297013D
:100FB0002A0D3B1DA60102C0440F551F2A95E2F7DA
:100FC0009A010197F1F0042B132B5FEFE51AF50A54
:100FD00084E0E816F10429F72196C330D10561F6C3
:100FE000C801DF91CF911F910F91FF90EF90DF909B
:100FF000CF90BF90AF900895FE01EC5DFE4F8081D1
:10100000C6CF2095309502231323DFCFCF93DF93F4
:10101000EC01817098708130984029F5C3FF23C09E
:1010200080913B0190913C010197B1F410923C01F9
:1010300010923B01CE01817098708130984099F4F4
:10104000C3FF11C00E94AB07EC016AE070E080E0D2
:1010500090E00E94DD02EECF81E090E090933C01B1
:1010600080933B01E7CFDF91CF910895CF92DF923C
:10107000EF92FF920F931F93CF93DF936C0183E066
:10108000E82EF12CD0E0C0E0CC15DD0549F0FE01E2
:10109000E25DFE4F808160E00E9459022196F4CF0C
:1010A00064E670E080E090E00E94DD0210E000E085
:1010B000C017D10751F0F801E25DFE4F808161E079
:1010C0000E9459020F5F1F4FF3CF64E670E080E08B
:1010D00090E00E94DD0281E0E81AF10899F6DF91C4
:1010E000CF911F910F91FF90EF90DF90CF900895D7
:1010F000CF93DF9300D01F92CDB7DEB7DC01FB01A9
:1011000012962C911297848195812817190641F423
:1011100091818081813A31F49D7F81E0913051F05D
:1011200080E008C08132E1F79B3051F482811F9644
:101130008C9381E00F900F900F90DF91CF910895E5
:101140009A3021F4828150968C93F3CF993041F7F5
:1011500086819781039721F763E070E0CE010196C5
:101160000E94EF04039729F78B8190E0982F88273E
:101170002A81820F911D9093B7018093B601D9CF38
:10118000AF92BF92CF92DF92EF92FF920F931F9395
:10119000CF93DF931F92CDB7DEB77C0169836A01DD
:1011A000590141E050E0BE016F5F7F4FFC01838138
:1011B0000E9448048C0197FD0BC0F7018381A501B3
:1011C000B60180640E944804080F191F97FD8C0126
:1011D000C8010F90DF91CF911F910F91FF90EF9079
:1011E000DF90CF90BF90AF900895DC01FB0188E4C1
:1011F000808389E4818384E482831D969C911D977A
:101200009F709F5B93831D968D919C9124E0969592
:1012100087952A95E1F78F708F5B848385E0089529
:10122000EF92FF920F931F93CF93DF93FB012081E7
:10123000213871F52381223259F5DC0112964C9147
:10124000248135814217130619F5EC010B851C85A5
:10125000F12CE12C0115110589F0F801448155812B
:101260006281738180E80E9411048F3F980749F0E2
:10127000E80EF91ED8010D911C91ECCF81E08F870B
:10128000C701DF91CF911F910F91FF90EF900895CB
:1012900090E080E0F6CFCF93DF93CDB7DEB76997CC
:1012A0000FB6F894DEBF0FBECDBFFC01DB018C9101
:1012B0008F5F8C939E012D5F3F4F8DE0D9011D9272
:1012C0008A95E9F729E0298384E08A8391E09D8368
:1012D00083E08E832A8721E22B879C879D879F87C7
:1012E00022E2288B27E02B8B25E02C8B8E8B20E4B1
:1012F00030E0388F2F8B998F82818B8395858685FF
:10130000998B8A8B838180688D8B49E150E0BE0187
:101310006F5F7F4F80E00E94110469960FB6F894CA
:10132000DEBF0FBECDBFDF91CF910895CF93DF9386
:1013300080918701811167C081E080937A01809359
:101340007B0120E831E030937D0120937C011092F5
:101350007F0110927E0121E431E0309377012093E8
:1013600076011092820110928101109284011092F4
:101370008301809385018093860181EC80938001B5
:101380000E942005FC01818190917A01482F490F2C
:101390005527551F483051059CF5A281B381109700
:1013A00009F526E731E033832283208120937801F9
:1013B0008093790180917B01820F808320917C0151
:1013C000A22FB0917D018A2F821B8917C8F48181D9
:1013D0003D91C82FD0E0CC5FDE4F38838F5F818393
:1013E000F2CFD90118962D913C911997211531050D
:1013F000C1F726E731E019963C932E931897D5CF85
:1014000081E08093870186E791E0DF91CF91089595
:10141000682F90E080E00C9479121F920F920FB623
:101420000F9211242F933F938F939F93AF93BF936A
:101430008091250290912602A0912702B091280266
:101440003091240223E0230F2D3758F50196A11D7A
:10145000B11D209324028093250290932602A0932D
:101460002702B09328028091290290912A02A0912C
:101470002B02B0912C020196A11DB11D809329026F
:1014800090932A02A0932B02B0932C02BF91AF91AC
:101490009F918F913F912F910F900FBE0F901F90B2
:1014A000189526E8230F0296A11DB11DD2CF1F92D9
:1014B0000F920FB60F9211242F933F934F935F9388
:1014C0006F937F938F939F93AF93BF93EF93FF930C
:1014D000E0912101F09122010995FF91EF91BF91D7
:1014E000AF919F918F917F916F915F914F913F91BC
:1014F0002F910F900FBE0F901F9018951F920F9273
:101500000FB60F9211242F933F934F935F936F93D6
:101510007F938F939F93AF93BF93EF93FF93E0914C
:101520001F01F09120010995FF91EF91BF91AF91BB
:101530009F918F917F916F915F914F913F912F91EB
:101540000F900FBE0F901F9018951F920F920FB61D
:101550000F9211242F933F934F935F936F937F9339
:101560008F939F93AF93BF93EF93FF93E0911D01F0
:10157000F0911E010995FF91EF91BF91AF919F915D
:101580008F917F916F915F914F913F912F910F902C
:101590000FBE0F901F9018951F920F920FB60F92CB
:1015A00011242F933F934F935F936F937F938F9368
:1015B0009F93AF93BF93EF93FF93E0911B01F09143
:1015C0001C010995FF91EF91BF91AF919F918F9170
:1015D0007F916F915F914F913F912F910F900FBE2F
:1015E0000F901F9018951F920F920FB60F92112413
:1015F0002F933F934F935F936F937F938F939F931B
:10160000AF93BF93EF93FF93E0911901F0911A010B
:101610000995FF91EF91BF91AF919F918F917F912C
:101620006F915F914F913F912F910F900FBE0F904F
:101630001F9018951F920F920FB60F9211248F933F
:101640009F938091E1009091E100937F9093E1005E
:1016500083FF0FC01092E90091E09093EB0010928D
:10166000EC0092E39093ED0010922E0298E090939C
:10167000F00082FF22C093E09093E9009091F20085
:10168000992319F09AE39093E8009091A00199238F
:1016900041F09091A00191509093A001911101C04F
:1016A0005D9A90912D02992341F090912D029150D5
:1016B00090932D02911101C0289A84FF18C0809147
:1016C000E2008E7E81608093E2008091E1008F7E57
:1016D0008093E1008091A1018E7E80618093A101C1
:1016E0009F918F910F900FBE0F901F90189580FFC4
:1016F000F7CF8091E2008E7E80618093E20080913E
:10170000E1008E7E8093E1008091A1018E7E816058
:10171000E5CF1F920F920FB60F921124CF92DF9256
:10172000EF92FF920F931F932F933F934F935F93EB
:101730006F937F938F939F93AF93BF93EF93FF9399
:10174000CF93DF93CDB7DEB76C97DEBFCDBF1092DE
:10175000E9008091E80083FF25C068E0CE0145964E
:101760000E94E20482EF8093E8008D8987FF39C0F0
:101770009091E80090FFFCCF982F907609F034C14B
:101780009E894F89588D2F89F88C911131C08038EE
:1017900061F58091A2018093F1001092F1008EEF2B
:1017A0008093E8006C960FB6F894DEBF0FBECDBFF5
:1017B000DF91CF91FF91EF91BF91AF919F918F9169
:1017C0007F916F915F914F913F912F911F910F9159
:1017D000FF90EF90DF90CF900F900FBE0F901F9073
:1017E00018959EEF9093E800C7CF1092F100D5CFE7
:1017F000913059F48111D3CF4130510581F6809158
:10180000A2018D7F8093A201CACF933049F4811148
:10181000C6CF4130510519F68091A2018260F2CF06
:10182000953041F48091E80080FFFCCF2068209340
:10183000E300B5CF963009F0A9C00B8D1C8D22E0D6
:101840001092E90010929E0110929D01F2122EC09A
:1018500010929C0110929B010E9434051F8299E016
:101860009983FA8291E09E8390EA98879AEF99870C
:1018700020919D0130919E01275F3F4F3C832B8338
:101880008D831092E90010929E0110929D01109399
:101890009C0100939B0149E050E0BE016F5F7F4FC8
:1018A00080E00E9411040E94340579CF10939C01BE
:1018B00000939B010E942005DC0112960D911C9162
:1018C0000115110509F44BC1D801ED91FC9104807B
:1018D000F581E02DBE016B5E7F4FC8010995009731
:1018E00009F038C1F80100851185EACFF3E0FF1255
:1018F0000EC08F89882309F440C0823061F440E82B
:1019000060E180E191E00E94DE03811148CF81E235
:101910008093EB0047CF813029F440E86BE084E00E
:1019200091E0F1CF833099F70E942005DC011296F7
:10193000ED90FC908E010F5F1F4F6801E114F104E0
:1019400079F0D701ED91FC910680F781E02DB80187
:10195000C7010995080F111DF701E084F184EECF4E
:10196000D8011C92F60101900020E9F73197BF01E0
:101970006C197D0940E0C601C6CF6EEE70E0FB0138
:10198000449150E080E80E94110409CF973009F497
:10199000BECF983021F481E08093F10000CF9930E0
:1019A00009F0FDCE837009F0B2CFE5E0F1E081E00F
:1019B00031E096E32191222371F08093E900309386
:1019C000EB00DF0111972C912093EC009093ED0038
:1019D0008F5F873079F78EE78093EA001092EA00F4
:1019E0008F8980932E02DBCE8B8D9C8D1092E90027
:1019F00010929E0110929D0190939C0180939B01F7
:101A0000898D81118CC08E899D89913A49F48132EA
:101A100009F07DCF47E050E06FE071E080E0B3CFA8
:101A2000913209F074CF833269F48F89988DB0E0D8
:101A3000A0E080930B0190930C01A0930D01B09353
:101A40000E01ADCE803239F467E070E08FE091E0B6
:101A50000E94EF04A4CE823209F0A1CE8F89809338
:101A60001601EEEFFFE7859194918B3F9C4D51F16C
:101A7000E0E0F8E080910F0190911001A091110138
:101A8000B0911201803B9440A105B105F1F4809121
:101A9000160180FD1AC0EE3F8AE0F80789F587E756
:101AA00097E7918380838091600080939F0188E114
:101AB0009BE00FB6F894A895809360000FBE9093BA
:101AC00060006DCEEEEFFAE0D5CF8081918187374F
:101AD000974709F064CEA895809160008861809353
:101AE000600080919F0180936000EE3F2AE0F20742
:101AF00089F08091FE0A9091FF0A918380834FCEF6
:101B0000808191818737980751F29093FF0A8093E3
:101B1000FE0AC5CF1092FF0A1092FE0A40CE0E9424
:101B20002005DC0112960D911C910115110509F497
:101B3000EECED801ED91FC910190F081E02DBE0137
:101B40006B5E7F4FC8010995811129CEF801008590
:101B50001185EBCF181619060CF421CED8CEF1E082
:101B6000FF12C4CE62EF70E00ACF109232021092E0
:101B7000310288EE93E0A0E0B0E0809333029093CE
:101B80003402A0933502B093360285E691E090933B
:101B9000300280932F028FEF9FEF90933C0280934F
:101BA0003B0280918502811113C010928002109235
:101BB0007F0288EA91E0909382028093810285E718
:101BC00091E0909384028093830281E08093850268
:101BD0000E949609FC01A385B485109781F48FE7D4
:101BE00092E0948783878585968520918302309142
:101BF0008402820F931F968785870895DC018D915B
:101C00009C9111970097D1F78FE792E08D939C9369
:101C1000EACFCF93DF93CDB7DEB7E1970FB6F89455
:101C2000DEBF0FBECDBF789484B5826084BD84B51D
:101C3000816084BD85B5826085BD85B5816085BDC7
:101C400080916E00816080936E001092810080917F
:101C50008100826080938100809181008160809307
:101C6000810080918000816080938000809191004C
:101C700082608093910080919100816080939100B7
:101C8000809190008160809390008091C100846079
:101C90008093C1008091C10082608093C1008091D7
:101CA000C10081608093C1008091C30081608093F6
:101CB000C3008091C00082608093C0008091C20008
:101CC00081608093C20080917A00846080937A0062
:101CD00080917A00826080937A0080917A0081609E
:101CE00080937A0080917A00806880937A001092C5
:101CF0002E021092A2011092A1018091D700816062
:101D00008093D70080EA8093D80089B5806189BD2F
:101D100089B5826089BD09B400FEFDCF61E070E045
:101D200080E090E00E94DD028091D8008F7C80618D
:101D30008093D8008091E000807F8093E0008091C4
:101D4000E1008E7E8093E1008DE08093E200559A61
:101D5000209A68EE73E080E090E00E94DD0210E0DF
:101D600000E0F801E85DFE4F808162E00E9487029A
:101D70000F5F1F4F04301105A1F78091250161E02D
:101D80000E9487028091260161E00E948702809173
:101D9000270161E00E94870210E000E0F801E25DA7
:101DA000FE4F808161E00E9487020F5F1F4F0C3061
:101DB0001105A1F762E083E00E94870262E082E001
:101DC0000E94870262E080E00E94870262E081E078
:101DD0000E9487020E94AB0790932D0180932C01F3
:101DE00064E670E080E090E00E94DD020E94AB07B4
:101DF00020912C0130912D018223932390932D016A
:101E000080932C0120912C0130912D0150E040E075
:101E100019A28E010F5D1F4F6AE0C62ED12CE12C56
:101E2000F12CCA01B901A70196010E94D113605D8E
:101E3000F80162938F01211531054105510589F79C
:101E4000309761F001900020E9F73197AF01401B16
:101E5000510BB8018FE292E00E94650542E050E02C
:101E600063E771E08FE292E00E94650580912C01AA
:101E700090912D0180FFD0C081E00E94080A90E07F
:101E800080E00E947112809323029FEF980F93309D
:101E900008F01AC1823009F4E7C0833009F40AC19E
:101EA00081E090E00E9436088FE093E090931C015F
:101EB00080931B01809169008C6080936900E99A8E
:101EC0008FE593E09093200180931F01809169003A
:101ED000806C80936900EB9A1092180110921701A0
:101EE0008BE9E82E8FE0F82E01E010E09FE0C92E8C
:101EF000D12C20E0622E20E0722E809123028150AE
:101F0000833008F09EC10E94AB079093AF0180938D
:101F1000AE0120913A0140912C0150912D01B60162
:101F200002C0660F771F2A95E2F7860F971F84235A
:101F3000952390932D0180932C01C7010197F1F710
:101F40000E94AB0720912C0130912D01822B932B05
:101F500090930202809301022091AD01222381F02F
:101F60008091A501821708F003C18F5F8093A501BE
:101F70008091A801821708F02FC18F5F8093A8017C
:101F80008091AB019091AC01909304028093030285
:101F90008091A9019091AA01909306028093050275
:101FA0008091AE019091AF010E94060880913B01A3
:101FB00090913C01019709F016C280910102909125
:101FC00002022091B6013091B701822B932B90939E
:101FD0002202809321028090210290902202B12C53
:101FE000A12C80913A018A151B0409F00CF403C25C
:101FF000F501E25DFE4FC4010A2C02C0969587955B
:102000000A94E2F780FFF4C1808160E00E945902E7
:102010005FEFA51AB50AE5CF80912C0190912D01B3
:1020200081FF02C082E029CF80912C0190912D0187
:1020300082FF02C083E021CF80912C0190912D017D
:1020400083FF02C084E019CF80912C0190912D0173
:1020500084FF02C085E011CF90E080E00E94711201
:10206000873008F40CCF08CF82E090E00E94360859
:1020700083E08093AD0181E090E09093180180931C
:10208000170189E397E090931C0180931B018091D5
:1020900069008C6080936900E99A8CEC96E09093DB
:1020A000200180931F0180916900806C80936900FA
:1020B000EB9A16CF83E090E00E94360885E080938B
:1020C000AD0182E090E0D9CF843049F584E090E022
:1020D0000E94360887EA96E090931C0180931B01CA
:1020E000809169008C6080936900E99A82E896E0AB
:1020F0009093200180931F0180916900806C8093F0
:102100006900EB9A10922401109223010E94530659
:1021100080E89FEF9093060280930502E1CE853020
:1021200009F0DECE85E090E00E94360883E08093DF
:10213000B80181E090E0909324018093230188E22C
:1021400096E090931C0180931B01809169008C6044
:1021500080936900E99A8DEF95E090932001809338
:102160001F0180916900806C80936900EB9ACECF4B
:102170001092AC011092AB011092A4011092A30135
:1021800080913A0140912C0150912D01F80102C03B
:10219000EE0FFF1F8A95E2F7CF018095909584237B
:1021A000952390932D0180932C0190913A014091B9
:1021B0002C0150912D019F5FB80102C0660F771F5F
:1021C0009A95E2F7CB01809590958423952390937F
:1021D0002D0180932C01CCCE1092AA011092A9015E
:1021E0001092A7011092A60190913A0120912C0122
:1021F00030912D019E5FF80102C0EE0FFF1F9A95EE
:10220000E2F7CF01809590958223932390932D013F
:1022100080932C0190913A0120912C0130912D0155
:102220009D5FA80102C0440F551F9A95E2F7CA01AD
:10223000809590958223932390932D0180932C0178
:102240009FCE0E94AB0790932D0180932C01C70174
:102250000197F1F70E94AB0720912C0130912D01DD
:10226000822B932BA9ECB1E050E040E020913A01A1
:102270002417150611F10CF1ED91FC9111979801BD
:1022800012960C90129702C0220F331F0A94E2F7A5
:10229000E150FE4FBC01042E02C0769567950A946A
:1022A000E2F7368560FF06C0232B26874F5F5F4F1E
:1022B0001496DCCF20952323F8CF8091C50190910F
:1022C000C601A091C701B091C8014091C1015091D0
:1022D000C2016091C3017091C401841B950BA60BD0
:1022E000B70B09F45CC080931E028091C5019091E8
:1022F000C601A091C701B091C8018093C10190931C
:10230000C201A093C301B093C4018091BD0190911B
:10231000BE01A091BF01B091C0014091B90150919F
:10232000BA016091BB017091BC01841B950BA60B97
:10233000B70BC1F180931F028091BD019091BE0146
:10234000A091BF01B091C0018093B9019093BA01EF
:10235000A093BB01B093BC019091B801992371F097
:102360008091B201891708F58F5F8093B201809147
:10237000B501891748F58F5F8093B50180912C01D5
:1023800090912D010E94060880913B0190913C01A3
:10239000019749F580912C0190912D0112CE109258
:1023A0001E02B3CF10921F02D7CF80910D028E7FF5
:1023B00080930D0280910D028D7F80930D0210920B
:1023C000B1011092B001D3CF80910D028F7E809326
:1023D0000D0280910D028F7D80930D021092B40149
:1023E0001092B301CBCF1092220210922102F3CDB2
:1023F000808161E00BCE80910102909102029BA34B
:102400008AA388E0E3E0F2E0DE01949601900D9269
:102410008A95E1F780910B0290910C029DA78CA701
:102420000E9496092CE030E0AE014E5D5F4F61E006
:102430000E94C00880910D02898380910E028A83D8
:1024400080910F028B83809110028C838091110206
:102450008D83809112028E83809113028F838091ED
:1024600014028887809115028987809116028A87D5
:10247000809117028B87809118028C8780911902B6
:102480008D8780911A028E8780911B028F878091A1
:102490001C02888B0E94960920E130E0AE014F5F5C
:1024A0005F4F62E00E94C00880911D028EA780915C
:1024B0001E028FA780911F0288AB8091200289ABFA
:1024C0000E94960924E030E0AE01425D5F4F63E078
:1024D0000E94C0086114710409F40FCD0E9400002D
:1024E0000CCDF999FECF92BD81BDF89A992780B5A0
:1024F0000895262FF999FECF1FBA92BD81BD20BD48
:102500000FB6F894FA9AF99A0FBE019608950E94B0
:102510009B120C9483130E947C1358F00E94751335
:1025200040F029F45F3F29F00C946C1351110C9486
:10253000B7130C9472130E94941368F39923B1F3A8
:10254000552391F3951B550BBB27AA2762177307D9
:10255000840738F09F5F5F4F220F331F441FAA1F6D
:10256000A9F335D00E2E3AF0E0E832D09150504029
:10257000E695001CCAF72BD0FE2F29D0660F771FD7
:10258000881FBB1F261737074807AB07B0E809F0BD
:10259000BB0B802DBF01FF2793585F4F3AF09E3F42
:1025A000510578F00C946C130C94B7135F3FE4F36F
:1025B000983ED4F3869577956795B795F7959F5F85
:1025C000C9F7880F911D9695879597F90895E1E0D1
:1025D000660F771F881FBB1F621773078407BA0730
:1025E00020F0621B730B840BBA0BEE1F88F7E0958B
:1025F00008950E9400136894B1110C94B7130895C4
:102600000E949C1388F09F5798F0B92F9927B751D3
:10261000B0F0E1F0660F771F881F991F1AF0BA9586
:10262000C9F714C0B13091F00E94B613B1E008951B
:102630000C94B613672F782F8827B85F39F0B93F0D
:10264000CCF3869577956795B395D9F73EF4909539
:102650008095709561957F4F8F4F9F4F0895E894B7
:1026600009C097FB3EF490958095709561957F4FDA
:102670008F4F9F4F9923A9F0F92F96E9BB27939588
:10268000F695879577956795B795F111F8CFFAF498
:10269000BB0F11F460FF1BC06F5F7F4F8F4F9F4FC9
:1026A00016C0882311F096E911C0772321F09EE827
:1026B000872F762F05C0662371F096E8862F70E08D
:1026C00060E02AF09A95660F771F881FDAF7880F67
:1026D0009695879597F9089597F99F6780E870E038
:1026E00060E008959FEF80EC089500240A94161688
:1026F000170618060906089500240A9412161306F0
:10270000140605060895092E0394000C11F488237D
:1027100052F0BB0F40F4BF2B11F460FF04C06F5F99
:102720007F4F8F4F9F4F089557FD9058440F551F6F
:1027300059F05F3F71F04795880F97FB991F61F043
:102740009F3F79F087950895121613061406551FBA
:10275000F2CF4695F1DF08C0161617061806991F26
:10276000F1CF86957105610508940895E894BB271B
:1027700066277727CB0197F9089597FB072E16F464
:10278000009407D077FD09D00E94F91307FC05D00B
:102790003EF4909581959F4F0895709561957F4F78
:1027A0000895A1E21A2EAA1BBB1BFD010DC0AA1F92
:1027B000BB1FEE1FFF1FA217B307E407F50720F0AA
:1027C000A21BB30BE40BF50B661F771F881F991F25
:1027D0001A9469F760957095809590959B01AC016E
:1027E000BD01CF010895EE0FFF1F0590F491E02D7C
:1027F0000994AA1BBB1B51E107C0AA1FBB1FA61748
:10280000B70710F0A61BB70B881F991F5A95A9F799
:0E28100080959095BC01CD010895F894FFCFFE
:10281E000000004000C18081000000FFFFFFFF00AC
:10282E00E10000000000000400AF03AF03AF03AFF0
:10283E0003AF0304000F100E050604070100121368
:10284E00141516170A09080B0C0D0C0100000000D8
:10285E000078084B091009F50829002200270013FB
:10286E00001200150025002A002B002C002D002E32
:10287E0000000000007B0565059C059105E305A1A0
:06288E0005BF050D0A0064
:00000001FF
